{
	"data": {
		"bytecode": {
			"linkReferences": {},
			"object": "608060405234801561001057600080fd5b5061032e806100206000396000f3fe608060405234801561001057600080fd5b50600436106100365760003560e01c8063010648ca1461003b578063b10d6b4114610057575b600080fd5b6100556004803603810190610050919061017f565b610088565b005b610071600480360381019061006c91906101f3565b610095565b60405161007f9291906102c8565b60405180910390f35b8060008190555050505050565b60606000826040518060400160405280600b81526020017f676574446f63756d656e740000000000000000000000000000000000000000008152509091509150915091565b600080fd5b600080fd5b6000819050919050565b6100f7816100e4565b811461010257600080fd5b50565b600081359050610114816100ee565b92915050565b600080fd5b600080fd5b600080fd5b60008083601f84011261013f5761013e61011a565b5b8235905067ffffffffffffffff81111561015c5761015b61011f565b5b60208301915083600182028301111561017857610177610124565b5b9250929050565b60008060008060608587031215610199576101986100da565b5b60006101a787828801610105565b945050602085013567ffffffffffffffff8111156101c8576101c76100df565b5b6101d487828801610129565b935093505060406101e787828801610105565b91505092959194509250565b600060208284031215610209576102086100da565b5b600061021784828501610105565b91505092915050565b600081519050919050565b600082825260208201905092915050565b60005b8381101561025a57808201518184015260208101905061023f565b83811115610269576000848401525b50505050565b6000601f19601f8301169050919050565b600061028b82610220565b610295818561022b565b93506102a581856020860161023c565b6102ae8161026f565b840191505092915050565b6102c2816100e4565b82525050565b600060408201905081810360008301526102e28185610280565b90506102f160208301846102b9565b939250505056fea264697066735822122047e7514049c960e82b02f690b8f50223478ec78c4c872e7c1dc48ad328d483e564736f6c634300080d0033",
			"opcodes": "PUSH1 0x80 PUSH1 0x40 MSTORE CALLVALUE DUP1 ISZERO PUSH2 0x10 JUMPI PUSH1 0x0 DUP1 REVERT JUMPDEST POP PUSH2 0x32E DUP1 PUSH2 0x20 PUSH1 0x0 CODECOPY PUSH1 0x0 RETURN INVALID PUSH1 0x80 PUSH1 0x40 MSTORE CALLVALUE DUP1 ISZERO PUSH2 0x10 JUMPI PUSH1 0x0 DUP1 REVERT JUMPDEST POP PUSH1 0x4 CALLDATASIZE LT PUSH2 0x36 JUMPI PUSH1 0x0 CALLDATALOAD PUSH1 0xE0 SHR DUP1 PUSH4 0x10648CA EQ PUSH2 0x3B JUMPI DUP1 PUSH4 0xB10D6B41 EQ PUSH2 0x57 JUMPI JUMPDEST PUSH1 0x0 DUP1 REVERT JUMPDEST PUSH2 0x55 PUSH1 0x4 DUP1 CALLDATASIZE SUB DUP2 ADD SWAP1 PUSH2 0x50 SWAP2 SWAP1 PUSH2 0x17F JUMP JUMPDEST PUSH2 0x88 JUMP JUMPDEST STOP JUMPDEST PUSH2 0x71 PUSH1 0x4 DUP1 CALLDATASIZE SUB DUP2 ADD SWAP1 PUSH2 0x6C SWAP2 SWAP1 PUSH2 0x1F3 JUMP JUMPDEST PUSH2 0x95 JUMP JUMPDEST PUSH1 0x40 MLOAD PUSH2 0x7F SWAP3 SWAP2 SWAP1 PUSH2 0x2C8 JUMP JUMPDEST PUSH1 0x40 MLOAD DUP1 SWAP2 SUB SWAP1 RETURN JUMPDEST DUP1 PUSH1 0x0 DUP2 SWAP1 SSTORE POP POP POP POP POP JUMP JUMPDEST PUSH1 0x60 PUSH1 0x0 DUP3 PUSH1 0x40 MLOAD DUP1 PUSH1 0x40 ADD PUSH1 0x40 MSTORE DUP1 PUSH1 0xB DUP2 MSTORE PUSH1 0x20 ADD PUSH32 0x676574446F63756D656E74000000000000000000000000000000000000000000 DUP2 MSTORE POP SWAP1 SWAP2 POP SWAP2 POP SWAP2 POP SWAP2 JUMP JUMPDEST PUSH1 0x0 DUP1 REVERT JUMPDEST PUSH1 0x0 DUP1 REVERT JUMPDEST PUSH1 0x0 DUP2 SWAP1 POP SWAP2 SWAP1 POP JUMP JUMPDEST PUSH2 0xF7 DUP2 PUSH2 0xE4 JUMP JUMPDEST DUP2 EQ PUSH2 0x102 JUMPI PUSH1 0x0 DUP1 REVERT JUMPDEST POP JUMP JUMPDEST PUSH1 0x0 DUP2 CALLDATALOAD SWAP1 POP PUSH2 0x114 DUP2 PUSH2 0xEE JUMP JUMPDEST SWAP3 SWAP2 POP POP JUMP JUMPDEST PUSH1 0x0 DUP1 REVERT JUMPDEST PUSH1 0x0 DUP1 REVERT JUMPDEST PUSH1 0x0 DUP1 REVERT JUMPDEST PUSH1 0x0 DUP1 DUP4 PUSH1 0x1F DUP5 ADD SLT PUSH2 0x13F JUMPI PUSH2 0x13E PUSH2 0x11A JUMP JUMPDEST JUMPDEST DUP3 CALLDATALOAD SWAP1 POP PUSH8 0xFFFFFFFFFFFFFFFF DUP2 GT ISZERO PUSH2 0x15C JUMPI PUSH2 0x15B PUSH2 0x11F JUMP JUMPDEST JUMPDEST PUSH1 0x20 DUP4 ADD SWAP2 POP DUP4 PUSH1 0x1 DUP3 MUL DUP4 ADD GT ISZERO PUSH2 0x178 JUMPI PUSH2 0x177 PUSH2 0x124 JUMP JUMPDEST JUMPDEST SWAP3 POP SWAP3 SWAP1 POP JUMP JUMPDEST PUSH1 0x0 DUP1 PUSH1 0x0 DUP1 PUSH1 0x60 DUP6 DUP8 SUB SLT ISZERO PUSH2 0x199 JUMPI PUSH2 0x198 PUSH2 0xDA JUMP JUMPDEST JUMPDEST PUSH1 0x0 PUSH2 0x1A7 DUP8 DUP3 DUP9 ADD PUSH2 0x105 JUMP JUMPDEST SWAP5 POP POP PUSH1 0x20 DUP6 ADD CALLDATALOAD PUSH8 0xFFFFFFFFFFFFFFFF DUP2 GT ISZERO PUSH2 0x1C8 JUMPI PUSH2 0x1C7 PUSH2 0xDF JUMP JUMPDEST JUMPDEST PUSH2 0x1D4 DUP8 DUP3 DUP9 ADD PUSH2 0x129 JUMP JUMPDEST SWAP4 POP SWAP4 POP POP PUSH1 0x40 PUSH2 0x1E7 DUP8 DUP3 DUP9 ADD PUSH2 0x105 JUMP JUMPDEST SWAP2 POP POP SWAP3 SWAP6 SWAP2 SWAP5 POP SWAP3 POP JUMP JUMPDEST PUSH1 0x0 PUSH1 0x20 DUP3 DUP5 SUB SLT ISZERO PUSH2 0x209 JUMPI PUSH2 0x208 PUSH2 0xDA JUMP JUMPDEST JUMPDEST PUSH1 0x0 PUSH2 0x217 DUP5 DUP3 DUP6 ADD PUSH2 0x105 JUMP JUMPDEST SWAP2 POP POP SWAP3 SWAP2 POP POP JUMP JUMPDEST PUSH1 0x0 DUP2 MLOAD SWAP1 POP SWAP2 SWAP1 POP JUMP JUMPDEST PUSH1 0x0 DUP3 DUP3 MSTORE PUSH1 0x20 DUP3 ADD SWAP1 POP SWAP3 SWAP2 POP POP JUMP JUMPDEST PUSH1 0x0 JUMPDEST DUP4 DUP2 LT ISZERO PUSH2 0x25A JUMPI DUP1 DUP3 ADD MLOAD DUP2 DUP5 ADD MSTORE PUSH1 0x20 DUP2 ADD SWAP1 POP PUSH2 0x23F JUMP JUMPDEST DUP4 DUP2 GT ISZERO PUSH2 0x269 JUMPI PUSH1 0x0 DUP5 DUP5 ADD MSTORE JUMPDEST POP POP POP POP JUMP JUMPDEST PUSH1 0x0 PUSH1 0x1F NOT PUSH1 0x1F DUP4 ADD AND SWAP1 POP SWAP2 SWAP1 POP JUMP JUMPDEST PUSH1 0x0 PUSH2 0x28B DUP3 PUSH2 0x220 JUMP JUMPDEST PUSH2 0x295 DUP2 DUP6 PUSH2 0x22B JUMP JUMPDEST SWAP4 POP PUSH2 0x2A5 DUP2 DUP6 PUSH1 0x20 DUP7 ADD PUSH2 0x23C JUMP JUMPDEST PUSH2 0x2AE DUP2 PUSH2 0x26F JUMP JUMPDEST DUP5 ADD SWAP2 POP POP SWAP3 SWAP2 POP POP JUMP JUMPDEST PUSH2 0x2C2 DUP2 PUSH2 0xE4 JUMP JUMPDEST DUP3 MSTORE POP POP JUMP JUMPDEST PUSH1 0x0 PUSH1 0x40 DUP3 ADD SWAP1 POP DUP2 DUP2 SUB PUSH1 0x0 DUP4 ADD MSTORE PUSH2 0x2E2 DUP2 DUP6 PUSH2 0x280 JUMP JUMPDEST SWAP1 POP PUSH2 0x2F1 PUSH1 0x20 DUP4 ADD DUP5 PUSH2 0x2B9 JUMP JUMPDEST SWAP4 SWAP3 POP POP POP JUMP INVALID LOG2 PUSH5 0x6970667358 0x22 SLT KECCAK256 SELFBALANCE 0xE7 MLOAD BLOCKHASH 0x49 0xC9 PUSH1 0xE8 0x2B MUL 0xF6 SWAP1 0xB8 CREATE2 MUL 0x23 SELFBALANCE DUP15 0xC7 DUP13 0x4C DUP8 0x2E PUSH29 0x1DC48AD328D483E564736F6C634300080D003300000000000000000000 "
		},
		"gasEstimates": {
			"creation": {
				"codeDepositCost": "162800",
				"executionCost": "208",
				"totalCost": "163008"
			},
			"external": {
				"getDocument(bytes32)": "infinite",
				"setDocument(bytes32,string,bytes32)": "infinite"
			}
		},
		"methodIdentifiers": {
			"getDocument(bytes32)": "b10d6b41",
			"setDocument(bytes32,string,bytes32)": "010648ca"
		}
	},
	"abi": [
		{
			"inputs": [
				{
					"internalType": "bytes32",
					"name": "name",
					"type": "bytes32"
				}
			],
			"name": "getDocument",
			"outputs": [
				{
					"internalType": "string",
					"name": "",
					"type": "string"
				},
				{
					"internalType": "bytes32",
					"name": "",
					"type": "bytes32"
				}
			],
			"stateMutability": "view",
			"type": "function"
		},
		{
			"inputs": [
				{
					"internalType": "bytes32",
					"name": "name",
					"type": "bytes32"
				},
				{
					"internalType": "string",
					"name": "uri",
					"type": "string"
				},
				{
					"internalType": "bytes32",
					"name": "documentHash",
					"type": "bytes32"
				}
			],
			"name": "setDocument",
			"outputs": [],
			"stateMutability": "nonpayable",
			"type": "function"
		}
	]
}